{
  "address": "0x86C70068B0F4028EC5AA17c1667Bb06ABdA57ab7",
  "abi": [
    {
      "inputs": [],
      "stateMutability": "nonpayable",
      "type": "constructor"
    },
    {
      "anonymous": false,
      "inputs": [
        {
          "indexed": true,
          "internalType": "address",
          "name": "owner",
          "type": "address"
        },
        {
          "indexed": true,
          "internalType": "address",
          "name": "approved",
          "type": "address"
        },
        {
          "indexed": true,
          "internalType": "uint256",
          "name": "tokenId",
          "type": "uint256"
        }
      ],
      "name": "Approval",
      "type": "event"
    },
    {
      "anonymous": false,
      "inputs": [
        {
          "indexed": true,
          "internalType": "address",
          "name": "owner",
          "type": "address"
        },
        {
          "indexed": true,
          "internalType": "address",
          "name": "operator",
          "type": "address"
        },
        {
          "indexed": false,
          "internalType": "bool",
          "name": "approved",
          "type": "bool"
        }
      ],
      "name": "ApprovalForAll",
      "type": "event"
    },
    {
      "anonymous": false,
      "inputs": [
        {
          "indexed": true,
          "internalType": "address",
          "name": "from",
          "type": "address"
        },
        {
          "indexed": true,
          "internalType": "address",
          "name": "to",
          "type": "address"
        },
        {
          "indexed": true,
          "internalType": "uint256",
          "name": "tokenId",
          "type": "uint256"
        }
      ],
      "name": "Transfer",
      "type": "event"
    },
    {
      "anonymous": false,
      "inputs": [
        {
          "indexed": true,
          "internalType": "uint256",
          "name": "tokenId",
          "type": "uint256"
        },
        {
          "indexed": false,
          "internalType": "string",
          "name": "tokenUri",
          "type": "string"
        }
      ],
      "name": "mintingNFT",
      "type": "event"
    },
    {
      "inputs": [
        {
          "internalType": "address",
          "name": "to",
          "type": "address"
        },
        {
          "internalType": "uint256",
          "name": "tokenId",
          "type": "uint256"
        }
      ],
      "name": "approve",
      "outputs": [],
      "stateMutability": "nonpayable",
      "type": "function"
    },
    {
      "inputs": [
        {
          "internalType": "address",
          "name": "owner",
          "type": "address"
        }
      ],
      "name": "balanceOf",
      "outputs": [
        {
          "internalType": "uint256",
          "name": "",
          "type": "uint256"
        }
      ],
      "stateMutability": "view",
      "type": "function"
    },
    {
      "inputs": [
        {
          "internalType": "string",
          "name": "_svg",
          "type": "string"
        }
      ],
      "name": "create",
      "outputs": [],
      "stateMutability": "nonpayable",
      "type": "function"
    },
    {
      "inputs": [
        {
          "internalType": "string",
          "name": "_imageUri",
          "type": "string"
        }
      ],
      "name": "formatTokenUri",
      "outputs": [
        {
          "internalType": "string",
          "name": "",
          "type": "string"
        }
      ],
      "stateMutability": "pure",
      "type": "function"
    },
    {
      "inputs": [
        {
          "internalType": "uint256",
          "name": "tokenId",
          "type": "uint256"
        }
      ],
      "name": "getApproved",
      "outputs": [
        {
          "internalType": "address",
          "name": "",
          "type": "address"
        }
      ],
      "stateMutability": "view",
      "type": "function"
    },
    {
      "inputs": [
        {
          "internalType": "address",
          "name": "owner",
          "type": "address"
        },
        {
          "internalType": "address",
          "name": "operator",
          "type": "address"
        }
      ],
      "name": "isApprovedForAll",
      "outputs": [
        {
          "internalType": "bool",
          "name": "",
          "type": "bool"
        }
      ],
      "stateMutability": "view",
      "type": "function"
    },
    {
      "inputs": [],
      "name": "name",
      "outputs": [
        {
          "internalType": "string",
          "name": "",
          "type": "string"
        }
      ],
      "stateMutability": "view",
      "type": "function"
    },
    {
      "inputs": [
        {
          "internalType": "uint256",
          "name": "tokenId",
          "type": "uint256"
        }
      ],
      "name": "ownerOf",
      "outputs": [
        {
          "internalType": "address",
          "name": "",
          "type": "address"
        }
      ],
      "stateMutability": "view",
      "type": "function"
    },
    {
      "inputs": [
        {
          "internalType": "address",
          "name": "from",
          "type": "address"
        },
        {
          "internalType": "address",
          "name": "to",
          "type": "address"
        },
        {
          "internalType": "uint256",
          "name": "tokenId",
          "type": "uint256"
        }
      ],
      "name": "safeTransferFrom",
      "outputs": [],
      "stateMutability": "nonpayable",
      "type": "function"
    },
    {
      "inputs": [
        {
          "internalType": "address",
          "name": "from",
          "type": "address"
        },
        {
          "internalType": "address",
          "name": "to",
          "type": "address"
        },
        {
          "internalType": "uint256",
          "name": "tokenId",
          "type": "uint256"
        },
        {
          "internalType": "bytes",
          "name": "_data",
          "type": "bytes"
        }
      ],
      "name": "safeTransferFrom",
      "outputs": [],
      "stateMutability": "nonpayable",
      "type": "function"
    },
    {
      "inputs": [
        {
          "internalType": "address",
          "name": "operator",
          "type": "address"
        },
        {
          "internalType": "bool",
          "name": "approved",
          "type": "bool"
        }
      ],
      "name": "setApprovalForAll",
      "outputs": [],
      "stateMutability": "nonpayable",
      "type": "function"
    },
    {
      "inputs": [
        {
          "internalType": "bytes4",
          "name": "interfaceId",
          "type": "bytes4"
        }
      ],
      "name": "supportsInterface",
      "outputs": [
        {
          "internalType": "bool",
          "name": "",
          "type": "bool"
        }
      ],
      "stateMutability": "view",
      "type": "function"
    },
    {
      "inputs": [
        {
          "internalType": "string",
          "name": "_svg",
          "type": "string"
        }
      ],
      "name": "svgToImage",
      "outputs": [
        {
          "internalType": "string",
          "name": "",
          "type": "string"
        }
      ],
      "stateMutability": "pure",
      "type": "function"
    },
    {
      "inputs": [],
      "name": "symbol",
      "outputs": [
        {
          "internalType": "string",
          "name": "",
          "type": "string"
        }
      ],
      "stateMutability": "view",
      "type": "function"
    },
    {
      "inputs": [],
      "name": "tokenCounter",
      "outputs": [
        {
          "internalType": "uint256",
          "name": "",
          "type": "uint256"
        }
      ],
      "stateMutability": "view",
      "type": "function"
    },
    {
      "inputs": [
        {
          "internalType": "uint256",
          "name": "tokenId",
          "type": "uint256"
        }
      ],
      "name": "tokenURI",
      "outputs": [
        {
          "internalType": "string",
          "name": "",
          "type": "string"
        }
      ],
      "stateMutability": "view",
      "type": "function"
    },
    {
      "inputs": [
        {
          "internalType": "address",
          "name": "from",
          "type": "address"
        },
        {
          "internalType": "address",
          "name": "to",
          "type": "address"
        },
        {
          "internalType": "uint256",
          "name": "tokenId",
          "type": "uint256"
        }
      ],
      "name": "transferFrom",
      "outputs": [],
      "stateMutability": "nonpayable",
      "type": "function"
    }
  ],
  "transactionHash": "0x9222803f25f90dfed67c7c0d5440074460cd0086e4701bc49ea2304e3a318368",
  "args": [],
  "solcInputHash": "fdb6b8662e33105974c2809e0ccec83b",
  "bytecode": "0x608060405260006007553480156200001657600080fd5b506040518060400160405280600581526020017f4d794e46540000000000000000000000000000000000000000000000000000008152506040518060400160405280600481526020017f4d4e46540000000000000000000000000000000000000000000000000000000081525081600090805190602001906200009b929190620000bd565b508060019080519060200190620000b4929190620000bd565b505050620001d2565b828054620000cb906200016d565b90600052602060002090601f016020900481019282620000ef57600085556200013b565b82601f106200010a57805160ff19168380011785556200013b565b828001600101855582156200013b579182015b828111156200013a5782518255916020019190600101906200011d565b5b5090506200014a91906200014e565b5090565b5b80821115620001695760008160009055506001016200014f565b5090565b600060028204905060018216806200018657607f821691505b602082108114156200019d576200019c620001a3565b5b50919050565b7f4e487b7100000000000000000000000000000000000000000000000000000000600052602260045260246000fd5b6130e180620001e26000396000f3fe608060405234801561001057600080fd5b506004361061010b5760003560e01c8063696e6c3c116100a2578063b6a46b3b11610071578063b6a46b3b146102dc578063b88d4fde146102f8578063c87b56dd14610314578063d082e38114610344578063e985e9c5146103625761010b565b8063696e6c3c1461024257806370a082311461027257806395d89b41146102a2578063a22cb465146102c05761010b565b806323b872dd116100de57806323b872dd146101aa57806334e79b53146101c657806342842e0e146101f65780636352211e146102125761010b565b806301ffc9a71461011057806306fdde0314610140578063081812fc1461015e578063095ea7b31461018e575b600080fd5b61012a60048036038101906101259190611fcf565b610392565b604051610137919061299f565b60405180910390f35b610148610474565b60405161015591906129ba565b60405180910390f35b61017860048036038101906101739190612062565b610506565b6040516101859190612938565b60405180910390f35b6101a860048036038101906101a39190611f93565b61058b565b005b6101c460048036038101906101bf9190611e8d565b6106a3565b005b6101e060048036038101906101db9190612021565b610703565b6040516101ed91906129ba565b60405180910390f35b610210600480360381019061020b9190611e8d565b610790565b005b61022c60048036038101906102279190612062565b6107b0565b6040516102399190612938565b60405180910390f35b61025c60048036038101906102579190612021565b610862565b60405161026991906129ba565b60405180910390f35b61028c60048036038101906102879190611e28565b6108fb565b6040516102999190612bdc565b60405180910390f35b6102aa6109b3565b6040516102b791906129ba565b60405180910390f35b6102da60048036038101906102d59190611f57565b610a45565b005b6102f660048036038101906102f19190612021565b610bc6565b005b610312600480360381019061030d9190611edc565b610c51565b005b61032e60048036038101906103299190612062565b610cb3565b60405161033b91906129ba565b60405180910390f35b61034c610e05565b6040516103599190612bdc565b60405180910390f35b61037c60048036038101906103779190611e51565b610e0b565b604051610389919061299f565b60405180910390f35b60007f80ac58cd000000000000000000000000000000000000000000000000000000007bffffffffffffffffffffffffffffffffffffffffffffffffffffffff1916827bffffffffffffffffffffffffffffffffffffffffffffffffffffffff1916148061045d57507f5b5e139f000000000000000000000000000000000000000000000000000000007bffffffffffffffffffffffffffffffffffffffffffffffffffffffff1916827bffffffffffffffffffffffffffffffffffffffffffffffffffffffff1916145b8061046d575061046c82610e9f565b5b9050919050565b60606000805461048390612e96565b80601f01602080910402602001604051908101604052809291908181526020018280546104af90612e96565b80156104fc5780601f106104d1576101008083540402835291602001916104fc565b820191906000526020600020905b8154815290600101906020018083116104df57829003601f168201915b5050505050905090565b600061051182610f09565b610550576040517f08c379a000000000000000000000000000000000000000000000000000000000815260040161054790612b3c565b60405180910390fd5b6004600083815260200190815260200160002060009054906101000a900473ffffffffffffffffffffffffffffffffffffffff169050919050565b6000610596826107b0565b90508073ffffffffffffffffffffffffffffffffffffffff168373ffffffffffffffffffffffffffffffffffffffff161415610607576040517f08c379a00000000000000000000000000000000000000000000000000000000081526004016105fe90612b9c565b60405180910390fd5b8073ffffffffffffffffffffffffffffffffffffffff16610626610f75565b73ffffffffffffffffffffffffffffffffffffffff16148061065557506106548161064f610f75565b610e0b565b5b610694576040517f08c379a000000000000000000000000000000000000000000000000000000000815260040161068b90612a7c565b60405180910390fd5b61069e8383610f7d565b505050565b6106b46106ae610f75565b82611036565b6106f3576040517f08c379a00000000000000000000000000000000000000000000000000000000081526004016106ea90612bbc565b60405180910390fd5b6106fe838383611114565b505050565b606060006040518060400160405280601d81526020017f646174613a6170706c69636174696f6e2f6a736f6e3b6261736536342c0000008152509050806107688460405160200161075491906128ea565b604051602081830303815290604052611370565b6040516020016107799291906128c6565b604051602081830303815290604052915050919050565b6107ab83838360405180602001604052806000815250610c51565b505050565b6000806002600084815260200190815260200160002060009054906101000a900473ffffffffffffffffffffffffffffffffffffffff169050600073ffffffffffffffffffffffffffffffffffffffff168173ffffffffffffffffffffffffffffffffffffffff161415610859576040517f08c379a000000000000000000000000000000000000000000000000000000000815260040161085090612abc565b60405180910390fd5b80915050919050565b606060006040518060400160405280601a81526020017f646174613a696d6167652f7376672b786d6c3b6261736536342c000000000000815250905060006108c8846040516020016108b491906128af565b604051602081830303815290604052611370565b9050600082826040516020016108df9291906128c6565b6040516020818303038152906040529050809350505050919050565b60008073ffffffffffffffffffffffffffffffffffffffff168273ffffffffffffffffffffffffffffffffffffffff16141561096c576040517f08c379a000000000000000000000000000000000000000000000000000000000815260040161096390612a9c565b60405180910390fd5b600360008373ffffffffffffffffffffffffffffffffffffffff1673ffffffffffffffffffffffffffffffffffffffff168152602001908152602001600020549050919050565b6060600180546109c290612e96565b80601f01602080910402602001604051908101604052809291908181526020018280546109ee90612e96565b8015610a3b5780601f10610a1057610100808354040283529160200191610a3b565b820191906000526020600020905b815481529060010190602001808311610a1e57829003601f168201915b5050505050905090565b610a4d610f75565b73ffffffffffffffffffffffffffffffffffffffff168273ffffffffffffffffffffffffffffffffffffffff161415610abb576040517f08c379a0000000000000000000000000000000000000000000000000000000008152600401610ab290612a3c565b60405180910390fd5b8060056000610ac8610f75565b73ffffffffffffffffffffffffffffffffffffffff1673ffffffffffffffffffffffffffffffffffffffff16815260200190815260200160002060008473ffffffffffffffffffffffffffffffffffffffff1673ffffffffffffffffffffffffffffffffffffffff16815260200190815260200160002060006101000a81548160ff0219169083151502179055508173ffffffffffffffffffffffffffffffffffffffff16610b75610f75565b73ffffffffffffffffffffffffffffffffffffffff167f17307eab39ab6107e8899845ad3d59bd9653f200f220920489ca2b5937696c3183604051610bba919061299f565b60405180910390a35050565b610bd23360075461151b565b6000610bdd82610862565b9050610bf3600754610bee83610703565b611539565b6007547f7eaeab4407949f334195e108498d0a368e2c2205ce7cdde2adab447b35db7503610c2083610703565b604051610c2d91906129ba565b60405180910390a260076000815480929190610c4890612ec8565b91905055505050565b610c62610c5c610f75565b83611036565b610ca1576040517f08c379a0000000000000000000000000000000000000000000000000000000008152600401610c9890612bbc565b60405180910390fd5b610cad848484846115ad565b50505050565b6060610cbe82610f09565b610cfd576040517f08c379a0000000000000000000000000000000000000000000000000000000008152600401610cf490612b1c565b60405180910390fd5b6000600660008481526020019081526020016000208054610d1d90612e96565b80601f0160208091040260200160405190810160405280929190818152602001828054610d4990612e96565b8015610d965780601f10610d6b57610100808354040283529160200191610d96565b820191906000526020600020905b815481529060010190602001808311610d7957829003601f168201915b505050505090506000610da7611609565b9050600081511415610dbd578192505050610e00565b600082511115610df2578082604051602001610dda9291906128c6565b60405160208183030381529060405292505050610e00565b610dfb84611620565b925050505b919050565b60075481565b6000600560008473ffffffffffffffffffffffffffffffffffffffff1673ffffffffffffffffffffffffffffffffffffffff16815260200190815260200160002060008373ffffffffffffffffffffffffffffffffffffffff1673ffffffffffffffffffffffffffffffffffffffff16815260200190815260200160002060009054906101000a900460ff16905092915050565b60007f01ffc9a7000000000000000000000000000000000000000000000000000000007bffffffffffffffffffffffffffffffffffffffffffffffffffffffff1916827bffffffffffffffffffffffffffffffffffffffffffffffffffffffff1916149050919050565b60008073ffffffffffffffffffffffffffffffffffffffff166002600084815260200190815260200160002060009054906101000a900473ffffffffffffffffffffffffffffffffffffffff1673ffffffffffffffffffffffffffffffffffffffff1614159050919050565b600033905090565b816004600083815260200190815260200160002060006101000a81548173ffffffffffffffffffffffffffffffffffffffff021916908373ffffffffffffffffffffffffffffffffffffffff160217905550808273ffffffffffffffffffffffffffffffffffffffff16610ff0836107b0565b73ffffffffffffffffffffffffffffffffffffffff167f8c5be1e5ebec7d5bd14f71427d1e84f3dd0314c0f7b2291e5b200ac8c7c3b92560405160405180910390a45050565b600061104182610f09565b611080576040517f08c379a000000000000000000000000000000000000000000000000000000000815260040161107790612a5c565b60405180910390fd5b600061108b836107b0565b90508073ffffffffffffffffffffffffffffffffffffffff168473ffffffffffffffffffffffffffffffffffffffff1614806110fa57508373ffffffffffffffffffffffffffffffffffffffff166110e284610506565b73ffffffffffffffffffffffffffffffffffffffff16145b8061110b575061110a8185610e0b565b5b91505092915050565b8273ffffffffffffffffffffffffffffffffffffffff16611134826107b0565b73ffffffffffffffffffffffffffffffffffffffff161461118a576040517f08c379a000000000000000000000000000000000000000000000000000000000815260040161118190612b5c565b60405180910390fd5b600073ffffffffffffffffffffffffffffffffffffffff168273ffffffffffffffffffffffffffffffffffffffff1614156111fa576040517f08c379a00000000000000000000000000000000000000000000000000000000081526004016111f190612a1c565b60405180910390fd5b6112058383836116c7565b611210600082610f7d565b6001600360008573ffffffffffffffffffffffffffffffffffffffff1673ffffffffffffffffffffffffffffffffffffffff16815260200190815260200160002060008282546112609190612dac565b925050819055506001600360008473ffffffffffffffffffffffffffffffffffffffff1673ffffffffffffffffffffffffffffffffffffffff16815260200190815260200160002060008282546112b79190612ccb565b92505081905550816002600083815260200190815260200160002060006101000a81548173ffffffffffffffffffffffffffffffffffffffff021916908373ffffffffffffffffffffffffffffffffffffffff160217905550808273ffffffffffffffffffffffffffffffffffffffff168473ffffffffffffffffffffffffffffffffffffffff167fddf252ad1be2c89b69c2b068fc378daa952ba7f163c4a11628f55a4df523b3ef60405160405180910390a4505050565b606060008251141561139357604051806020016040528060008152509050611516565b600060405180606001604052806040815260200161306c60409139905060006003600285516113c29190612ccb565b6113cc9190612d21565b60046113d89190612d52565b905060006020826113e99190612ccb565b67ffffffffffffffff811115611428577f4e487b7100000000000000000000000000000000000000000000000000000000600052604160045260246000fd5b6040519080825280601f01601f19166020018201604052801561145a5781602001600182028036833780820191505090505b509050818152600183018586518101602084015b818310156114d5576003830192508251603f8160121c1685015160f81b8252600182019150603f81600c1c1685015160f81b8252600182019150603f8160061c1685015160f81b8252600182019150603f811685015160f81b82526001820191505061146e565b6003895106600181146114ef57600281146114ff5761150a565b613d3d60f01b600283035261150a565b603d60f81b60018303525b50505050508093505050505b919050565b6115358282604051806020016040528060008152506116cc565b5050565b61154282610f09565b611581576040517f08c379a000000000000000000000000000000000000000000000000000000000815260040161157890612adc565b60405180910390fd5b806006600084815260200190815260200160002090805190602001906115a8929190611c4c565b505050565b6115b8848484611114565b6115c484848484611727565b611603576040517f08c379a00000000000000000000000000000000000000000000000000000000081526004016115fa906129dc565b60405180910390fd5b50505050565b606060405180602001604052806000815250905090565b606061162b82610f09565b61166a576040517f08c379a000000000000000000000000000000000000000000000000000000000815260040161166190612b7c565b60405180910390fd5b6000611674611609565b9050600081511161169457604051806020016040528060008152506116bf565b8061169e846118be565b6040516020016116af9291906128c6565b6040516020818303038152906040525b915050919050565b505050565b6116d68383611a6b565b6116e36000848484611727565b611722576040517f08c379a0000000000000000000000000000000000000000000000000000000008152600401611719906129dc565b60405180910390fd5b505050565b60006117488473ffffffffffffffffffffffffffffffffffffffff16611c39565b156118b1578373ffffffffffffffffffffffffffffffffffffffff1663150b7a02611771610f75565b8786866040518563ffffffff1660e01b81526004016117939493929190612953565b602060405180830381600087803b1580156117ad57600080fd5b505af19250505080156117de57506040513d601f19601f820116820180604052508101906117db9190611ff8565b60015b611861573d806000811461180e576040519150601f19603f3d011682016040523d82523d6000602084013e611813565b606091505b50600081511415611859576040517f08c379a0000000000000000000000000000000000000000000000000000000008152600401611850906129dc565b60405180910390fd5b805181602001fd5b63150b7a0260e01b7bffffffffffffffffffffffffffffffffffffffffffffffffffffffff1916817bffffffffffffffffffffffffffffffffffffffffffffffffffffffff1916149150506118b6565b600190505b949350505050565b60606000821415611906576040518060400160405280600181526020017f30000000000000000000000000000000000000000000000000000000000000008152509050611a66565b600082905060005b6000821461193857808061192190612ec8565b915050600a826119319190612d21565b915061190e565b60008167ffffffffffffffff81111561197a577f4e487b7100000000000000000000000000000000000000000000000000000000600052604160045260246000fd5b6040519080825280601f01601f1916602001820160405280156119ac5781602001600182028036833780820191505090505b5090505b60008514611a5f576001826119c59190612dac565b9150600a856119d49190612f11565b60306119e09190612ccb565b60f81b818381518110611a1c577f4e487b7100000000000000000000000000000000000000000000000000000000600052603260045260246000fd5b60200101907effffffffffffffffffffffffffffffffffffffffffffffffffffffffffffff1916908160001a905350600a85611a589190612d21565b94506119b0565b8093505050505b919050565b600073ffffffffffffffffffffffffffffffffffffffff168273ffffffffffffffffffffffffffffffffffffffff161415611adb576040517f08c379a0000000000000000000000000000000000000000000000000000000008152600401611ad290612afc565b60405180910390fd5b611ae481610f09565b15611b24576040517f08c379a0000000000000000000000000000000000000000000000000000000008152600401611b1b906129fc565b60405180910390fd5b611b30600083836116c7565b6001600360008473ffffffffffffffffffffffffffffffffffffffff1673ffffffffffffffffffffffffffffffffffffffff1681526020019081526020016000206000828254611b809190612ccb565b92505081905550816002600083815260200190815260200160002060006101000a81548173ffffffffffffffffffffffffffffffffffffffff021916908373ffffffffffffffffffffffffffffffffffffffff160217905550808273ffffffffffffffffffffffffffffffffffffffff16600073ffffffffffffffffffffffffffffffffffffffff167fddf252ad1be2c89b69c2b068fc378daa952ba7f163c4a11628f55a4df523b3ef60405160405180910390a45050565b600080823b905060008111915050919050565b828054611c5890612e96565b90600052602060002090601f016020900481019282611c7a5760008555611cc1565b82601f10611c9357805160ff1916838001178555611cc1565b82800160010185558215611cc1579182015b82811115611cc0578251825591602001919060010190611ca5565b5b509050611cce9190611cd2565b5090565b5b80821115611ceb576000816000905550600101611cd3565b5090565b6000611d02611cfd84612c28565b612bf7565b905082815260208101848484011115611d1a57600080fd5b611d25848285612e54565b509392505050565b6000611d40611d3b84612c58565b612bf7565b905082815260208101848484011115611d5857600080fd5b611d63848285612e54565b509392505050565b600081359050611d7a8161300f565b92915050565b600081359050611d8f81613026565b92915050565b600081359050611da48161303d565b92915050565b600081519050611db98161303d565b92915050565b600082601f830112611dd057600080fd5b8135611de0848260208601611cef565b91505092915050565b600082601f830112611dfa57600080fd5b8135611e0a848260208601611d2d565b91505092915050565b600081359050611e2281613054565b92915050565b600060208284031215611e3a57600080fd5b6000611e4884828501611d6b565b91505092915050565b60008060408385031215611e6457600080fd5b6000611e7285828601611d6b565b9250506020611e8385828601611d6b565b9150509250929050565b600080600060608486031215611ea257600080fd5b6000611eb086828701611d6b565b9350506020611ec186828701611d6b565b9250506040611ed286828701611e13565b9150509250925092565b60008060008060808587031215611ef257600080fd5b6000611f0087828801611d6b565b9450506020611f1187828801611d6b565b9350506040611f2287828801611e13565b925050606085013567ffffffffffffffff811115611f3f57600080fd5b611f4b87828801611dbf565b91505092959194509250565b60008060408385031215611f6a57600080fd5b6000611f7885828601611d6b565b9250506020611f8985828601611d80565b9150509250929050565b60008060408385031215611fa657600080fd5b6000611fb485828601611d6b565b9250506020611fc585828601611e13565b9150509250929050565b600060208284031215611fe157600080fd5b6000611fef84828501611d95565b91505092915050565b60006020828403121561200a57600080fd5b600061201884828501611daa565b91505092915050565b60006020828403121561203357600080fd5b600082013567ffffffffffffffff81111561204d57600080fd5b61205984828501611de9565b91505092915050565b60006020828403121561207457600080fd5b600061208284828501611e13565b91505092915050565b61209481612de0565b82525050565b6120a381612df2565b82525050565b60006120b482612c88565b6120be8185612c9e565b93506120ce818560208601612e63565b6120d781612ffe565b840191505092915050565b60006120ed82612c93565b6120f78185612caf565b9350612107818560208601612e63565b61211081612ffe565b840191505092915050565b600061212682612c93565b6121308185612cc0565b9350612140818560208601612e63565b80840191505092915050565b6000612159602683612cc0565b91507f226465736372697074696f6e223a224d757a616d6d696c204e465420696f6e2060008301527f535647222c2000000000000000000000000000000000000000000000000000006020830152602682019050919050565b60006121bf603283612caf565b91507f4552433732313a207472616e7366657220746f206e6f6e20455243373231526560008301527f63656976657220696d706c656d656e74657200000000000000000000000000006020830152604082019050919050565b6000612225601c83612caf565b91507f4552433732313a20746f6b656e20616c7265616479206d696e746564000000006000830152602082019050919050565b6000612265602483612caf565b91507f4552433732313a207472616e7366657220746f20746865207a65726f2061646460008301527f72657373000000000000000000000000000000000000000000000000000000006020830152604082019050919050565b60006122cb601983612caf565b91507f4552433732313a20617070726f766520746f2063616c6c6572000000000000006000830152602082019050919050565b600061230b602c83612caf565b91507f4552433732313a206f70657261746f7220717565727920666f72206e6f6e657860008301527f697374656e7420746f6b656e00000000000000000000000000000000000000006020830152604082019050919050565b6000612371601183612cc0565b91507f2261747472696275746573223a22222c200000000000000000000000000000006000830152601182019050919050565b60006123b1603883612caf565b91507f4552433732313a20617070726f76652063616c6c6572206973206e6f74206f7760008301527f6e6572206e6f7220617070726f76656420666f7220616c6c00000000000000006020830152604082019050919050565b6000612417602a83612caf565b91507f4552433732313a2062616c616e636520717565727920666f7220746865207a6560008301527f726f2061646472657373000000000000000000000000000000000000000000006020830152604082019050919050565b600061247d602983612caf565b91507f4552433732313a206f776e657220717565727920666f72206e6f6e657869737460008301527f656e7420746f6b656e00000000000000000000000000000000000000000000006020830152604082019050919050565b60006124e3602e83612caf565b91507f45524337323155524953746f726167653a2055524920736574206f66206e6f6e60008301527f6578697374656e7420746f6b656e0000000000000000000000000000000000006020830152604082019050919050565b6000612549600983612cc0565b91507f22696d616765223a2200000000000000000000000000000000000000000000006000830152600982019050919050565b6000612589600283612cc0565b91507f227d0000000000000000000000000000000000000000000000000000000000006000830152600282019050919050565b60006125c9602083612caf565b91507f4552433732313a206d696e7420746f20746865207a65726f20616464726573736000830152602082019050919050565b6000612609603183612caf565b91507f45524337323155524953746f726167653a2055524920717565727920666f722060008301527f6e6f6e6578697374656e7420746f6b656e0000000000000000000000000000006020830152604082019050919050565b600061266f602c83612caf565b91507f4552433732313a20617070726f76656420717565727920666f72206e6f6e657860008301527f697374656e7420746f6b656e00000000000000000000000000000000000000006020830152604082019050919050565b60006126d5602983612caf565b91507f4552433732313a207472616e73666572206f6620746f6b656e2074686174206960008301527f73206e6f74206f776e00000000000000000000000000000000000000000000006020830152604082019050919050565b600061273b602f83612caf565b91507f4552433732314d657461646174613a2055524920717565727920666f72206e6f60008301527f6e6578697374656e7420746f6b656e00000000000000000000000000000000006020830152604082019050919050565b60006127a1602183612caf565b91507f4552433732313a20617070726f76616c20746f2063757272656e74206f776e6560008301527f72000000000000000000000000000000000000000000000000000000000000006020830152604082019050919050565b6000612807603183612caf565b91507f4552433732313a207472616e736665722063616c6c6572206973206e6f74206f60008301527f776e6572206e6f7220617070726f7665640000000000000000000000000000006020830152604082019050919050565b600061286d601183612cc0565b91507f7b226e616d65223a226d794e4654222c200000000000000000000000000000006000830152601182019050919050565b6128a981612e4a565b82525050565b60006128bb828461211b565b915081905092915050565b60006128d2828561211b565b91506128de828461211b565b91508190509392505050565b60006128f582612860565b91506129008261214c565b915061290b82612364565b91506129168261253c565b9150612922828461211b565b915061292d8261257c565b915081905092915050565b600060208201905061294d600083018461208b565b92915050565b6000608082019050612968600083018761208b565b612975602083018661208b565b61298260408301856128a0565b818103606083015261299481846120a9565b905095945050505050565b60006020820190506129b4600083018461209a565b92915050565b600060208201905081810360008301526129d481846120e2565b905092915050565b600060208201905081810360008301526129f5816121b2565b9050919050565b60006020820190508181036000830152612a1581612218565b9050919050565b60006020820190508181036000830152612a3581612258565b9050919050565b60006020820190508181036000830152612a55816122be565b9050919050565b60006020820190508181036000830152612a75816122fe565b9050919050565b60006020820190508181036000830152612a95816123a4565b9050919050565b60006020820190508181036000830152612ab58161240a565b9050919050565b60006020820190508181036000830152612ad581612470565b9050919050565b60006020820190508181036000830152612af5816124d6565b9050919050565b60006020820190508181036000830152612b15816125bc565b9050919050565b60006020820190508181036000830152612b35816125fc565b9050919050565b60006020820190508181036000830152612b5581612662565b9050919050565b60006020820190508181036000830152612b75816126c8565b9050919050565b60006020820190508181036000830152612b958161272e565b9050919050565b60006020820190508181036000830152612bb581612794565b9050919050565b60006020820190508181036000830152612bd5816127fa565b9050919050565b6000602082019050612bf160008301846128a0565b92915050565b6000604051905081810181811067ffffffffffffffff82111715612c1e57612c1d612fcf565b5b8060405250919050565b600067ffffffffffffffff821115612c4357612c42612fcf565b5b601f19601f8301169050602081019050919050565b600067ffffffffffffffff821115612c7357612c72612fcf565b5b601f19601f8301169050602081019050919050565b600081519050919050565b600081519050919050565b600082825260208201905092915050565b600082825260208201905092915050565b600081905092915050565b6000612cd682612e4a565b9150612ce183612e4a565b9250827fffffffffffffffffffffffffffffffffffffffffffffffffffffffffffffffff03821115612d1657612d15612f42565b5b828201905092915050565b6000612d2c82612e4a565b9150612d3783612e4a565b925082612d4757612d46612f71565b5b828204905092915050565b6000612d5d82612e4a565b9150612d6883612e4a565b9250817fffffffffffffffffffffffffffffffffffffffffffffffffffffffffffffffff0483118215151615612da157612da0612f42565b5b828202905092915050565b6000612db782612e4a565b9150612dc283612e4a565b925082821015612dd557612dd4612f42565b5b828203905092915050565b6000612deb82612e2a565b9050919050565b60008115159050919050565b60007fffffffff0000000000000000000000000000000000000000000000000000000082169050919050565b600073ffffffffffffffffffffffffffffffffffffffff82169050919050565b6000819050919050565b82818337600083830152505050565b60005b83811015612e81578082015181840152602081019050612e66565b83811115612e90576000848401525b50505050565b60006002820490506001821680612eae57607f821691505b60208210811415612ec257612ec1612fa0565b5b50919050565b6000612ed382612e4a565b91507fffffffffffffffffffffffffffffffffffffffffffffffffffffffffffffffff821415612f0657612f05612f42565b5b600182019050919050565b6000612f1c82612e4a565b9150612f2783612e4a565b925082612f3757612f36612f71565b5b828206905092915050565b7f4e487b7100000000000000000000000000000000000000000000000000000000600052601160045260246000fd5b7f4e487b7100000000000000000000000000000000000000000000000000000000600052601260045260246000fd5b7f4e487b7100000000000000000000000000000000000000000000000000000000600052602260045260246000fd5b7f4e487b7100000000000000000000000000000000000000000000000000000000600052604160045260246000fd5b6000601f19601f8301169050919050565b61301881612de0565b811461302357600080fd5b50565b61302f81612df2565b811461303a57600080fd5b50565b61304681612dfe565b811461305157600080fd5b50565b61305d81612e4a565b811461306857600080fd5b5056fe4142434445464748494a4b4c4d4e4f505152535455565758595a6162636465666768696a6b6c6d6e6f707172737475767778797a303132333435363738392b2fa2646970667358221220797a238410709c3795385c5f4d4b6484d1ebbc7d2ae3f94bd09be7d76c2fd04e64736f6c63430008000033",
  "devdoc": {
    "kind": "dev",
    "methods": {
      "approve(address,uint256)": {
        "details": "See {IERC721-approve}."
      },
      "balanceOf(address)": {
        "details": "See {IERC721-balanceOf}."
      },
      "getApproved(uint256)": {
        "details": "See {IERC721-getApproved}."
      },
      "isApprovedForAll(address,address)": {
        "details": "See {IERC721-isApprovedForAll}."
      },
      "name()": {
        "details": "See {IERC721Metadata-name}."
      },
      "ownerOf(uint256)": {
        "details": "See {IERC721-ownerOf}."
      },
      "safeTransferFrom(address,address,uint256)": {
        "details": "See {IERC721-safeTransferFrom}."
      },
      "safeTransferFrom(address,address,uint256,bytes)": {
        "details": "See {IERC721-safeTransferFrom}."
      },
      "setApprovalForAll(address,bool)": {
        "details": "See {IERC721-setApprovalForAll}."
      },
      "supportsInterface(bytes4)": {
        "details": "See {IERC165-supportsInterface}."
      },
      "symbol()": {
        "details": "See {IERC721Metadata-symbol}."
      },
      "tokenURI(uint256)": {
        "details": "See {IERC721Metadata-tokenURI}."
      },
      "transferFrom(address,address,uint256)": {
        "details": "See {IERC721-transferFrom}."
      }
    },
    "version": 1
  },
  "userdoc": {
    "kind": "user",
    "methods": {},
    "version": 1
  },
  "storageLayout": {
    "storage": [
      {
        "astId": 25,
        "contract": "contracts/SVGNFT.sol:MyNFT",
        "label": "_name",
        "offset": 0,
        "slot": "0",
        "type": "t_string_storage"
      },
      {
        "astId": 27,
        "contract": "contracts/SVGNFT.sol:MyNFT",
        "label": "_symbol",
        "offset": 0,
        "slot": "1",
        "type": "t_string_storage"
      },
      {
        "astId": 31,
        "contract": "contracts/SVGNFT.sol:MyNFT",
        "label": "_owners",
        "offset": 0,
        "slot": "2",
        "type": "t_mapping(t_uint256,t_address)"
      },
      {
        "astId": 35,
        "contract": "contracts/SVGNFT.sol:MyNFT",
        "label": "_balances",
        "offset": 0,
        "slot": "3",
        "type": "t_mapping(t_address,t_uint256)"
      },
      {
        "astId": 39,
        "contract": "contracts/SVGNFT.sol:MyNFT",
        "label": "_tokenApprovals",
        "offset": 0,
        "slot": "4",
        "type": "t_mapping(t_uint256,t_address)"
      },
      {
        "astId": 45,
        "contract": "contracts/SVGNFT.sol:MyNFT",
        "label": "_operatorApprovals",
        "offset": 0,
        "slot": "5",
        "type": "t_mapping(t_address,t_mapping(t_address,t_bool))"
      },
      {
        "astId": 962,
        "contract": "contracts/SVGNFT.sol:MyNFT",
        "label": "_tokenURIs",
        "offset": 0,
        "slot": "6",
        "type": "t_mapping(t_uint256,t_string_storage)"
      },
      {
        "astId": 1727,
        "contract": "contracts/SVGNFT.sol:MyNFT",
        "label": "tokenCounter",
        "offset": 0,
        "slot": "7",
        "type": "t_uint256"
      }
    ],
    "types": {
      "t_address": {
        "encoding": "inplace",
        "label": "address",
        "numberOfBytes": "20"
      },
      "t_bool": {
        "encoding": "inplace",
        "label": "bool",
        "numberOfBytes": "1"
      },
      "t_mapping(t_address,t_bool)": {
        "encoding": "mapping",
        "key": "t_address",
        "label": "mapping(address => bool)",
        "numberOfBytes": "32",
        "value": "t_bool"
      },
      "t_mapping(t_address,t_mapping(t_address,t_bool))": {
        "encoding": "mapping",
        "key": "t_address",
        "label": "mapping(address => mapping(address => bool))",
        "numberOfBytes": "32",
        "value": "t_mapping(t_address,t_bool)"
      },
      "t_mapping(t_address,t_uint256)": {
        "encoding": "mapping",
        "key": "t_address",
        "label": "mapping(address => uint256)",
        "numberOfBytes": "32",
        "value": "t_uint256"
      },
      "t_mapping(t_uint256,t_address)": {
        "encoding": "mapping",
        "key": "t_uint256",
        "label": "mapping(uint256 => address)",
        "numberOfBytes": "32",
        "value": "t_address"
      },
      "t_mapping(t_uint256,t_string_storage)": {
        "encoding": "mapping",
        "key": "t_uint256",
        "label": "mapping(uint256 => string)",
        "numberOfBytes": "32",
        "value": "t_string_storage"
      },
      "t_string_storage": {
        "encoding": "bytes",
        "label": "string",
        "numberOfBytes": "32"
      },
      "t_uint256": {
        "encoding": "inplace",
        "label": "uint256",
        "numberOfBytes": "32"
      }
    }
  }
}